:1000000094C200000C941B0C0C94640C0C94AD0C6A
:100010000C94F60CA8C20000A6C20000A4C2000006
:10002000A2C20000A0C200000C949C0B9CC2000065
:100030009AC2000098C200000C94C30B94C2000046
:100040000C94D60A90C20000BAC5000090C500000A
:100050008AC2000088C2000086C2000084C200007C
:1000600082C2000080C200007EC200007CC200008C
:100070007AC200000C94E80B76C2000074C2000043
:1000800072C2000070C200006EC200009F06FF0630
:1000900007070B070D070F071107130715071707AA
:1000A0002B073F0755076B0774077D0786078C07EB
:1000B00095079E07A70700407A10F35A00A0724EDA
:1000C00018090010A5D4E80000E87648170000E4FD
:1000D0000B54020000CA9A3B000000E1F505000045
:1000E00080969800000040420F000000A0860100AA
:1000F0000000102700000000E8030000000064007A
:10010000000000000A0000000000010000000000E4
:100110002C76D888DC674F0823DFC1DFAE59E1B108
:10012000B796E5E3E453C63AE651997696E8E6C217
:100130008426EB898C9B62ED407C6FFCEFBC9C9F1E
:1001400040F2BAA56FA5F490055A2AF75C936B6C40
:10015000F9676DC11BFCE0E40D47FEF520E6B50034
:10016000D0ED902E0300943577050080841E0800A2
:1001700000204E0A000000C80C333333330F986E52
:1001800012831141EF8D2114893BE65516CFFEE60F
:10019000DB18D1844B381BF77C1D901DA4BBE424D5
:1001A000203284725E228100C9F124ECA1E53D2752
:1001B000AF039B03860375036203520340032E03C0
:1001C0001A030503EE02D802C002A7028E027502CE
:1001D0005B024802350222020F020002F201E00136
:1001E0007365745374656572696E6741737369737F
:1001F000740073657456656E74734C6576656C0037
:100200007365744C69676874734C6576656C0061DE
:1002100063746976617465446F6F724C617463686E
:1002200034006163746976617465446F6F724C6108
:1002300074636833006163746976617465446F6FD9
:10024000724C6174636832006163746976617465CD
:10025000446F6F724C6174636831006465616374EC
:10026000697661746557696E64736869656C645713
:100270006970657200616374697661746557696E4F
:1002800064736869656C6457697065723300616393
:1002900074697661746557696E64736869656C64C6
:1002A000576970657232006163746976617465576D
:1002B000696E64736869656C645769706572310052
:1002C0006163746976617465526967687457696EB1
:1002D000646F77446F776E006163746976617465EB
:1002E000526967687457696E646F7755700061630F
:1002F0007469766174654C65667457696E646F776E
:10030000446F776E0061637469766174654C6566ED
:100310007457696E646F77557000646561637469C2
:1003200076617465467574757265557365006163B1
:100330007469766174654675747572655573650088
:10034000646561637469766174654C6F7742656159
:100350006D0061637469766174654C6F77426561A5
:100360006D00646561637469766174654869676886
:100370004265616D0061637469766174654869679F
:10038000684265616D00736574496E746572696F6A
:10039000724C69676874734F666600736574496E62
:1003A000746572696F724C69676874734F6E006729
:1003B00065740022051A0512050A050205FB04F3FF
:1003C00004E104CE04BD04AB04A40490047C0468DE
:1003D0000454044B04320421041B0415040F0409C3
:1003E000040304FD03F703F103EB03414443383AEC
:1003F00000414443373A00414443363A00414443C4
:10040000353A00414443343A00414443333A0041D1
:100410004443323A00414443313A00686F726E3AC5
:10042000007374656572696E675F61737369737475
:100430003A007374656572696E675F776865656CAD
:100440005F706F736974696F6E3A0062617474658E
:1004500072793A00706F7765725F77696E6473685E
:1004600069656C6452443A00706F7765725F7769B2
:100470006E64736869656C6452553A00706F776595
:10048000725F77696E64736869656C644C443A00A6
:10049000706F7765725F77696E64736869656C64A5
:1004A0004C553A0076656E74733A0077696E6473E2
:1004B0006869656C645F77697065723A00696E742B
:1004C0006572696F725F6C69676874733A0072690C
:1004D0006768745F7475726E5F7369676E616C3A9A
:1004E000006C6566745F7475726E5F7369676E61C8
:1004F0006C3A0068617A6172643A006272616B659D
:100500003A00776865656C343A00776865656C33E6
:100510003A00776865656C323A00776865656C31DA
:100520003A006361725F6F6E3A0011241FBECFEF15
:10053000D0E1DEBFCDBF11E0A0E0B1E0E0E8F2E243
:1005400000E00BBF02C007900D92A031B107D9F7B0
:1005500022E0A0E1B1E001C01D92A432B207E1F7B0
:100560002BD00C943E114CCD87E886B90895806459
:1005700087B985E38A95F1F700008AE08A95F1F75B
:1005800000C0369A349BFECF349A84B195B1089559
:10059000EEDFBC0180E090E00E943F0D20E030E003
:1005A00040EA5BE30E947C0D2AE037ED47E950E426
:1005B0000C947C0DD5C60895FDDFC79AD5DF36D3E0
:1005C000B0D74DE760EA76E881E090E077D241E08D
:1005D00060E573EC80E090E07DD281E080930602DC
:1005E000C59AC79A7894992493940F2EF0E3EF2E2E
:1005F000F5E7FF2EF02D512C712C0F2EF2E1AF2ECE
:10060000F02DC6E0D2E0BB24B3940F2EFFE08F2E76
:10061000F02D0F2EF3E6CF2ED12CF02D05E610E0B5
:100620000F2EFFE16F2EF02D0DC00F2EF0E3EF2EF9
:10063000F5E7FF2EF02D06C00F2EF0E3EF2EF5E7C5
:10064000FF2EF02D4FD3C8991AC080912B01811134
:1006500016C0A0922B0183B7811101C044D78F81AE
:10066000882331F01F82C49810922701712C22C078
:10067000BF829598C49A1886809227011BC0C99999
:1006800019C080912A01811115C0A0922A0183B757
:10069000811101C028D78885882331F01886959864
:1006A00010922701512C06C0B886C498959A1F82D3
:1006B00080922701CA9905C0879903C0979ABD8285
:1006C00006C0CA9B04C0879B02C097981D82CB9925
:1006D00005C09F9903C0AF9ABB8A06C0CB9B04C0DC
:1006E0009F9B02C0AF981B8ACC990FC080912801B4
:1006F00081110BC0B69B02C0C69801C0C69AA092D9
:10070000280183B7811101C0EED6CE9918C0CF9BC6
:1007100016C0849914C0CD9908C0AB9A6092240188
:1007200083B781114DC0DFD64BC0F8018081816055
:10073000808380818D7F8083949ABC8641C0CE9BCC
:1007400012C0F601808180FF0EC0809126018111C8
:100750000AC0F80180818E7F808380818D7F8083B5
:1007600094981C862DC0CF9918C0CE9B16C0849932
:1007700014C0CD9908C0AC9A6092230183B781114F
:100780001FC0B1D61DC0F80180818E7F808380811B
:1007900082608083949ABD8613C0CF9B11C0F601FE
:1007A000808181FF0DC080912601811109C0F8016F
:1007B00080818E7F808380818D7F808394981D8649
:1007C00002991CC0039B1AC0F601808184FD16C0EB
:1007D000CD9908C0AD9A6092220183B7811157C0AC
:1007E00082D655C0F8018081846080838081877FB4
:1007F0008083808180618083BE8649C0029B14C053
:10080000F601808182FF10C08091250181110CC00A
:10081000F80180818B7F80838081877F80838081C6
:100820008F7E8083BE8633C003991CC0029B1AC092
:10083000F601808184FD16C0CD9908C0AE9A609201
:10084000210183B7811123C04ED621C0F8018081D8
:100850008B7F8083808188608083808180618083BA
:10086000BF8615C0039B13C0F601808183FF0FC0B4
:100870008091250181110BC0F80180818B7F8083DD
:100880008081877F808380818F7E80831F86049B09
:1008900080912901049980B184E069DE863991054F
:1008A0001CF4BE821F9A02C01E821F9880912701ED
:1008B00081116DC08E81882389F0B49B02C0C498D9
:1008C00001C0C49A859B02C0959801C0959A8092F8
:1008D000270183B781115BC006D659C08F81882359
:1008E00041F17720A9F086E042DE8115924020F0A8
:1008F0001F82C498712C4BC0B49B02C0C49801C025
:10090000C49A8092270183B7811141C0ECD53FC0C2
:1009100086E02DDE81159240B8F1B49B02C0C498E8
:1009200001C0C49A8092270183B7811130C0DBD502
:100930002EC08885882359F15520A9F086E017DE5E
:100940008130924020F418869598512C20C0859BC8
:1009500002C0959801C0959A8092270183B78111B2
:1009600016C0C1D514C086E002DE8130924070F41A
:10097000859B02C0959801C0959A8092270183B704
:10098000811105C0B0D503C07B2C01C05B2C8091C8
:100990002401811102C09B99AB98809123018111A0
:1009A00002C09C99AC9880912201811102C09D994E
:1009B000AD9880912101811102C09E99AE98E114F9
:1009C000F10409F06FC087E0D2DD8E3C910558F448
:1009D000989904C0999902C09A9B05C0A898A998B3
:1009E000AA981A862DC087E0C2DD8E3C910560F082
:1009F00087E0BDDD8A39914038F4989905C0A89AFE
:100A00008A858C598A871CC087E0B1DD8736924081
:100A100060F087E0ACDD8333934038F4999905C0EA
:100A2000A99A8A858C5E8A870BC087E0A0DD843313
:100A3000934030F09A9904C0AA9A8A858D5F8A877C
:100A4000992009F4F2CDB0921C015BD580E08FD5DE
:100A500083B7811101C047D589B7882321F08091E0
:100A60001C018111F9CF87B78F7B87BF19BE809199
:100A700036019091370101978C3B910508F0DCCD50
:100A800010923701109236014B2D60E177E280E041
:100A900090E020D0912C0F2EF0E3EF2EF5E7FF2E03
:100AA000F02DD0CD81E0E81AF108CCCD80E58DB9EC
:100AB0001EB808958FB9779BFECF089560931001FB
:100AC00070931101809312019093130140930001E0
:100AD000EDCF0895CF92DF92EF92FF92CF93E42F64
:100AE0002091100130911101409112015091130198
:100AF000261737074807590788F1F0910001DC01F4
:100B0000CB018F1B9109A109B109181619061A0604
:100B10001B0634F5CE2F6627782F892F9A2F0E9437
:100B2000430E69017A0181E0C81AD108E108F10891
:100B30001A9881E1BFDFC1110CC080E091E0A0E014
:100B4000B0E09C01AD012C193D094E095F09690116
:100B50007A018C2DAFDF1A9A8C2D03C080E001C082
:100B600084E3CF91FF90EF90DF90CF9008951F9294
:100B70000F920FB60F9211240BB60F928F93EF9333
:100B8000FF93E091C301809105028E1751F081E03F
:100B90008E0F8093C301F0E0ED57FE4F80818CB93A
:100BA00004C0559881E080931401FF91EF918F91DB
:100BB0000F900BBE0F900FBE0F901F9018951F92B5
:100BC0000F920FB60F9211240BB60F922F938F93A3
:100BD0009F93EF93FF932CB18091160190E00196C3
:100BE0008F739078992324F40197806C9F6F0196FE
:100BF00090911701891771F02D3049F0E09116019D
:100C0000F0E0EC53FE4F20838093160103C081E097
:100C100080931501FF91EF919F918F912F910F90EC
:100C20000BBE0F900FBE0F901F90189580E189B9F1
:100C3000109290001BB888E98AB986E080939500ED
:100C4000E6E0F2E08AE192E01192E817F907E1F7B5
:100C50000895109205021092C301FC012081222305
:100C600079F0DC01E091050281E08E0F80930502AE
:100C70008D91F0E0ED57FE4F80838C918111F2CF82
:100C8000809177018823A1F020910502E22F91E065
:100C90009E0FF0E0ED57FE4F8083E92FE21BF0E05E
:100CA000E958FE4F8081E92F8111F1CF9093050221
:100CB00081E08093C301E0910502AE2FB0E0AD5713
:100CC000BE4F8DE08C9382E08E0F80930502EF5F24
:100CD000F0E0ED57FE4F8AE08083809183018CB96C
:100CE000559A08950F931F93CF93DF938091150129
:100CF000882309F417C21092150100EB11E0C0E03F
:100D0000D0E001C02196F8016591749185E491E0ED
:100D10000E94B00EBC0184EC91E00E94BE0E892BB3
:100D200031F00E5F1F4FC531D10561F719C1C531D3
:100D3000D10508F015C1FE01EA5BFF4FC6C781E08F
:100D400080931C011092370110923601DAD380E0B3
:100D50000ED483B7811101C0C6D389B7882321F08F
:100D600080911C018111F9CF81E080931C011092C8
:100D7000350110923401C5D381E0F9D383B78111D5
:100D800001C0B1D389B7882321F080911C01811162
:100D9000F9CF81E080931C0110923301109232014F
:100DA000B0D382E0E4D383B7811101C09CD389B76B
:100DB000882321F080911C018111F9CF81E080937B
:100DC0001C0110923101109230019BD383E0CFD3EC
:100DD00083B7811101C087D389B7882321F080911F
:100DE0001C018111F9CF87B78F7B87BF19BE109285
:100DF0001B0110921A0181E08093140186C11C9A94
:100E000081E080930F0281E091E023DF7EC11C9896
:100E100010920F027AC1C69A78C1C69876C1C59A57
:100E200074C1C59872C11D9A70C11D986EC1E5E666
:100E3000F0E080818160808380818D7F8083949ABF
:100E400081E0809312028EE38093260183B78111A3
:100E50005CC149D35AC1E5E6F0E080818E7F808392
:100E6000808182608083949A81E0809313028EE374
:100E70008093260183B7811148C135D346C1E5E689
:100E8000F0E08081846080838081877F808380819F
:100E90008061808381E0809314028EE3809325013A
:100EA00083B7811132C11FD330C1E5E6F0E0808104
:100EB0008B7F808380818860808380818061808354
:100EC00081E0809315028EE38093250183B7811121
:100ED0001CC109D31AC1989918C1A89AE6E0F2E09A
:100EE00082858C59828711C199990FC1A99AE6E030
:100EF000F2E082858C5E828708C19A9906C1AA9A1F
:100F0000E6E0F2E082858D5F8287FFC0A898A9980D
:100F1000AA9810921002F9C0AB9A8FE18093240135
:100F200083B78111F2C0DFD2F0C0AC9A8FE1809319
:100F3000230183B78111E9C0D6D2E7C0AD9A8FE112
:100F40008093220183B78111E0C0CDD2DEC0AE9A7A
:100F50008FE18093210183B78111D7C0C4D2D5C05E
:100F600087E091E076DE10921901109218018091CD
:100F70001601882341F120E030E080E0482F50E066
:100F8000FA01EC53FE4F908160ED690F6A3090F4E6
:100F90009F70290F311DB901660F771F220F331F74
:100FA000220F331F220F331F260F371FFA01EC5376
:100FB000FE4F10828F5F909116018917F8F23093DF
:100FC00019012093180180911801909119016AE08C
:100FD00070E046D670931901609318010AED11E094
:100FE000C5E1D0E007C021960E5F1F4FC831D10583
:100FF00009F48BC0F8016591749185E491E0B0D655
:10100000BC0184EC91E0BAD6892B69F7C531D105D2
:1010100089F58091180190911901843691052CF081
:10102000C79A8FB5877F8FBD70C0009729F4C79886
:101030008FB5877F8FBD69C09C01220F331F880F3A
:10104000991F880F991F880F991F820F931F9093E4
:101050003F0180933E010FB403FE04C087B7846054
:1010600087BF53C090937900809378008FB58860D4
:101070008FBD4BC0C631D105E1F58091180190912B
:10108000190180931102843638F01B9AEBE8F0E0E6
:1010900080818F77808339C0811107C01B98EBE86E
:1010A000F0E080818F77808330C099279C01220FE8
:1010B000331F880F991F880F991F880F991F820F60
:1010C000931F90933D0180933C0120918B0022233C
:1010D00034F4EDE7F0E080818460808316C0909363
:1010E000870080938600EBE8F0E080818068808351
:1010F0000CC0679751F4209118012093180230E03A
:10110000A8EEB3E0EBD541E0E5DC4091160150E0FC
:1011100060E070E084EC91E02AD610921701109202
:10112000160119C180911401882309F414C180911A
:101130001C01811110C11092140180911A0190912B
:101140001B018D31910509F406C18130910591F49F
:10115000609136017091370180E090E090D42DECE1
:101160003CEC4CEC5CE3C8D407E711E023E043E03F
:10117000D8D5DAC08230910591F460913401709134
:10118000350180E090E07BD42DEC3CEC4CEC5CE352
:10119000B3D407E711E023E043E0C3D5C5C08330F3
:1011A000910591F4609132017091330180E090E0FB
:1011B00066D42DEC3CEC4CEC5CE39ED407E711E0EC
:1011C00023E043E0AED5B0C08430910591F4609146
:1011D00030017091310180E090E051D42DEC3CEC75
:1011E0004CEC5CE389D407E711E023E043E099D5B8
:1011F0009BC08031910541F485E0CAD907E711E031
:1012000021E043E08ED590C08131910561F486E004
:10121000AED9BC0180E090E032D407E711E021E0D4
:1012200043E07FD581C08431910561F480E09FD98E
:10123000BC0180E090E023D407E711E021E043E027
:1012400070D572C08531910561F481E090D9BC01FF
:1012500080E090E014D407E711E021E043E061D59D
:1012600063C08631910561F482E081D9BC0180E0E0
:1012700090E005D407E711E021E043E052D554C0E7
:101280008731910561F483E072D9BC0180E090E080
:10129000F6D307E711E021E043E043D545C08831AC
:1012A000910561F484E063D9BC0180E090E0E7D36C
:1012B00007E711E021E043E034D536C089319105DC
:1012C00061F485E054D9BC0180E090E0D8D307E711
:1012D00011E021E043E025D527C08A31910561F472
:1012E00086E045D9BC0180E090E0C9D307E711E072
:1012F00021E043E016D518C08B31910561F487E0F9
:1013000036D9BC0180E090E0BAD307E711E021E0D4
:1013100043E007D509C0FC01EA5FFD4F80814AE048
:1013200067E771E090E033D5E0911A01F0911B017D
:10133000EE0FFF1FED54FC4F6591749183E891E02F
:101340000FD587DC80911A0190911B010196909333
:101350001B0180931A01DF91CF911F910F91089586
:10136000CF93DF938AB31ABA8BB32FEF2BBB87B31C
:1013700017BA88B328BB84B314BA85B325BB81B32D
:1013800011BA82B322BB82B112B883B123B981E60C
:1013900090E0DC013C911C92E2E6F0E03081208399
:1013A000C4E6D0E02881207E288345E650E0DA01BB
:1013B0002C912F612C93D098D898D198D998D29805
:1013C000DA98D398DB98D498DC98D598DD98D6989D
:1013D000DE98D798DF98DC012C912F7E2C9320810A
:1013E0002F7E2083B89AC09AB99AC19ABA9AC29AA3
:1013F000BB98BB98C39ABC9AC498BD9AC598BE9A2C
:10140000C698BF9AC798A09AA898A19AA998A29A94
:10141000AA98A39AAB98A49AAC98A59AAD98A69AC4
:10142000AE98A79AAF9888989098899891988A983A
:1014300092988B9893988C9A94988D9A95988E9A66
:1014400096988F9A9798129A1A9A139A1B98149AA8
:101450001C98159A1D98169A1E98179A1F98208105
:101460002E7F208320812D7F20832C912B7F2C9316
:1014700020812B7F20832C91277F2C932081277F15
:1014800020832C912F7E2C9380818F7E808380817E
:101490008F7D808380818F7B808380818F77808325
:1014A000888181608883FA0180818E7F8083888132
:1014B0008260888380818D7F808388818460888337
:1014C00080818B7F80838881886088838081877F0B
:1014D000808388818061888380818F7E808315BE30
:1014E000DF91CF91089586E082BF87B7816087BF83
:1014F00083B7876083BF089513BE87B78E7F87BF8A
:1015000008958EEC84BD87B7806487BF86B78064FA
:1015100086BF86B7806486BF089587B78F7B87BFF5
:10152000089513BE8FB583608FBD8EB589608EBD63
:101530001BBC1ABC19BC18BC109279001092780020
:10154000EBE8F0E0808183608083EAE8F0E080816E
:101550008960808310928700109286001092850027
:1015600010928400109283001092820008959FEFE1
:1015700090936A0010922C0110922D0110922E016E
:1015800010922F01813049F028F0823049F08330E9
:1015900051F0089581E089BF089582E089BF0895E0
:1015A00084E089BF089588E089BF08951F920F9253
:1015B0000FB60F9211240BB60F922F933F934F93B8
:1015C0005F936F937F938F939F93AF93BF93EF93AB
:1015D000FF9386E082BF80912B0181112EC0809104
:1015E0002A0181112AC080912901811126C0809190
:1015F0002701811122C08091280181111EC0809194
:10160000260181111AC080912501811116C0809197
:101610002401811112C08091230181110EC080919B
:10162000220181110AC080912101811106C080919F
:101630001C01811102C060DF6CC080912B018823E6
:1016400029F080912B01815080932B0180912A01F8
:10165000882329F080912A01815080932A0180916A
:101660002901882329F08091290181508093290143
:1016700080912801882329F080912801815080934E
:10168000280180912701882329F08091270181502A
:101690008093270180912501882329F080912501DD
:1016A00081508093250180912601882329F0809123
:1016B000260181508093260180912401882329F0FE
:1016C00080912401815080932401809123018823FB
:1016D00029F0809123018150809323018091220180
:1016E000882329F0809122018150809322018091EA
:1016F0002101882329F080912101815080932101CB
:1017000080911C01882329F080911C0181508093D5
:101710001C01FF91EF91BF91AF919F918F917F91AC
:101720006F915F914F913F912F910F900BBE0F9052
:101730000FBE0F901F9018951F920F920FB60F9229
:1017400011248F939F93AF93BF938EEC84BD8091B0
:101750002C0190912D01A0912E01B0912F010196A5
:10176000A11DB11D80932C0190932D01A0932E01FA
:10177000B0932F01BF91AF919F918F910F900FBEAA
:101780000F901F9018951F920F920FB60F92112471
:101790008F939F9387B78B7F87BF809142019091F2
:1017A00043019BBD8ABD809140019091410199BD4B
:1017B00088BD80913E0190913F0190937900809384
:1017C00078009F918F910F900FBE0F901F901895EA
:1017D0001F920F920FB60F9211240BB60F928F9398
:1017E0009F93EF93FF93EDE7F0E080818B7F808301
:1017F00080913C0190913D019093870080938600F9
:1018000080913A0190913B019093850080938400F0
:1018100080913801909139019093830080938200E8
:10182000FF91EF919F918F910F900BBE0F900FBE84
:101830000F901F9018951F920F920FB60F921124C0
:101840000BB60F922F933F934F935F936F937F93BA
:101850008F939F93AF93BF93EF93FF93809120015A
:10186000882389F080912C0190912D01A0912E0167
:10187000B0912F0190933701809336014EDE19BE4F
:10188000109220010EC085B5826085BD10922C019A
:1018900010922D0110922E0110922F0181E0809361
:1018A0002001FF91EF91BF91AF919F918F917F9117
:1018B0006F915F914F913F912F910F900BBE0F90C1
:1018C0000FBE0F901F9018951F920F920FB60F9298
:1018D00011240BB60F922F933F934F935F936F9307
:1018E0007F938F939F93AF93BF93EF93FF938091D9
:1018F0001F01882389F080912C0190912D01A091E6
:101900002E01B0912F01909335018093340105DEB3
:1019100019BE10921F010EC085B5826085BD109260
:101920002C0110922D0110922E0110922F0181E0B6
:1019300080931F01FF91EF91BF91AF919F918F9184
:101940007F916F915F914F913F912F910F900BBEBF
:101950000F900FBE0F901F9018951F920F920FB609
:101960000F9211240BB60F922F933F934F935F93D7
:101970006F937F938F939F93AF93BF93EF93FF9357
:1019800080911E01882389F080912C0190912D0176
:10199000A0912E01B0912F019093330180933201D9
:1019A000BCDD19BE10921E010EC085B5826085BDDA
:1019B00010922C0110922D0110922E0110922F01E5
:1019C00081E080931E01FF91EF91BF91AF919F91B4
:1019D0008F917F916F915F914F913F912F910F90D8
:1019E0000BBE0F900FBE0F901F9018951F920F9275
:1019F0000FB60F9211240BB60F922F933F934F9374
:101A00005F936F937F938F939F93AF93BF93EF9366
:101A1000FF9380911D01882389F080912C01909182
:101A20002D01A0912E01B0912F019093310180934F
:101A3000300173DD19BE10921D010EC085B58260A4
:101A400085BD10922C0110922D0110922E01109242
:101A50002F0181E080931D01FF91EF91BF91AF9124
:101A60009F918F917F916F915F914F913F912F91B6
:101A70000F900BBE0F900FBE0F901F901895E8941B
:101A800009C097FB3EF490958095709561957F4FC6
:101A90008F4F9F4F9923A9F0F92F96E9BB27939574
:101AA000F695879577956795B795F111F8CFFAF484
:101AB000BB0F11F460FF1BC06F5F7F4F8F4F9F4FB5
:101AC00016C0882311F096E911C0772321F09EE813
:101AD000872F762F05C0662371F096E8862F70E079
:101AE00060E02AF09A95660F771F881FDAF7880F53
:101AF0009695879597F908950BD078C069D028F00E
:101B00006ED018F0952309F05AC05FC01124A2C00E
:101B10007ED0A0F3959FD1F3950F50E0551F629FA3
:101B2000F001729FBB27F00DB11D639FAA27F00D36
:101B3000B11DAA1F649F6627B00DA11D661F829F5D
:101B40002227B00DA11D621F739FB00DA11D621F42
:101B5000839FA00D611D221F749F3327A00D611D5F
:101B6000231F849F600D211D822F762F6A2F112441
:101B70009F5750408AF0E1F088234AF0EE0FFF1F94
:101B8000BB1F661F771F881F91505040A9F79E3FCB
:101B9000510570F014C05EC05F3FECF3983EDCF37B
:101BA000869577956795B795F795E7959F5FC1F708
:101BB000FE2B880F911D9695879597F9089597F9B3
:101BC0009F6780E870E060E008959FEF80EC0895E3
:101BD00000240A941616170618060906089500240C
:101BE0000A9412161306140605060895092E039486
:101BF000000C11F4882352F0BB0F40F4BF2B11F4FA
:101C000060FF04C06F5F7F4F8F4F9F4F089557FD58
:101C10009058440F551F59F05F3F71F04795880F5A
:101C200097FB991F61F09F3F79F0879508951216F1
:101C300013061406551FF2CF4695F1DF08C016169D
:101C400017061806991FF1CF86957105610508944E
:101C50000895E894BB2766277727CB0197F9089565
:101C600097FB072E16F4009406D077FD08D045D0D8
:101C700007FC05D03EF4909581959F4F089570958F
:101C800061957F4F0895A1E21A2EAA1BBB1BFD018F
:101C90000DC0AA1FBB1FEE1FFF1FA217B307E4074B
:101CA000F50720F0A21BB30BE40BF50B661F771FA3
:101CB000881F991F1A9469F7609570958095909583
:101CC0009B01AC01BD01CF010895EE0FFF1F002461
:101CD000001C0BBE0790F691E02D0994A29FB00165
:101CE000B39FC001A39F700D811D1124911DB29F50
:101CF000700D811D1124911D0895AA1BBB1B51E17C
:101D000007C0AA1FBB1FA617B70710F0A61BB70B6B
:101D1000881F991F5A95A9F780959095BC01CD0110
:101D20000895EF920F931F93CF93DF93E80147FD40
:101D300002C034E001C034E1042E000C550B57FF03
:101D400003C0519541955109E32E022F242FAE0176
:101D500037D0CE01DF91CF911F910F91EF90089571
:101D6000FB01DC0105900D920020E1F70895DC01F4
:101D700001C06D9341505040E0F70895FB01DC0134
:101D80008D91019080190110D9F3990B0895BB270B
:101D9000FB015527AA27880F991FAA1FA41710F027
:101DA000A41B83955051B9F7A05DAA3308F0A95D33
:101DB000A193009779F7B111B1931192CB014EC263
:101DC0008F929F92AF92BF92CF92DF92EF92FF924B
:101DD0000F931F93CF93DF93CDB7DEB729970FB63D
:101DE000F894DEBF0FBECDBF6A01122FB02E2BE3D9
:101DF000201720F0FF24F394F00E02C02CE3F22E03
:101E00000F2D27E0AE014F5F5F4F50D1BC014981DC
:101E1000842F8970813031F0E1FC06C0E0FE06C0FD
:101E200090E205C09DE203C09BE201C090E05E2D00
:101E3000507143FF3CC0911102C083E001C084E0B7
:101E4000811718F4212F281B01C020E051110BC06D
:101E5000F601822F30E2882319F031938150FBCFB5
:101E6000C20ED11C20E0992329F0D6019C93F601E3
:101E700031966F01C6010396E2FE0AC03EE4D60128
:101E80003C9341E411964C93119712963C9306C0F3
:101E90003EE6F601308341E641833283FC01322F76
:101EA00040E2332309F442C041933150FACF42FF5C
:101EB00044C0911102C083E001C084E0811718F48E
:101EC000212F281B01C020E051110BC0F601822FE9
:101ED00030E2882319F031938150FBCFC20ED11C20
:101EE00020E0992329F0D6019C93F60131966F01E9
:101EF000C6010396E2FE0BC039E4D6013C933EE4F2
:101F000011963C93119736E412963C9307C039E63C
:101F1000F60130833EE6318336E63283FC01322F10
:101F200040E2332319F041933150FBCFFC01E20F23
:101F3000F11D10828EEF9FEFA6C021E030E09111DD
:101F400002C020E030E0161617061CF4FB013196A3
:101F500002C0E1E0F0E02E0F3F1FBB2021F0EB2D8F
:101F6000F0E0319602C0E0E0F0E02E0F3F1FE12FDD
:101F7000F0E02E173F071CF4121B212F01C020E0B8
:101F80008E2D887159F4F601822F30E2882319F0E2
:101F900031938150FBCFC20ED11C20E0992329F050
:101FA000D6019C93F60131966F0151110BC0F601D9
:101FB000822F90E3882319F091938150FBCFC20EBA
:101FC000D11C20E00F2D060F9A81342F307144FF71
:101FD00003C0913309F40150101624F4093018F0AD
:101FE00008E001C001E0AB0177FF02C040E050E033
:101FF000FB01E41BF50BA1E0B0E0AC0FBD1FEA0F45
:10200000FB1F8EE2A82E4B01801A91080B2D10E0C9
:102010001195019511094F3FBFEF5B0721F4D601E0
:10202000AC9211966D01641775072CF08416950615
:1020300014F4818101C080E3415051093196D601E9
:1020400011967D014017510724F0D6018C9367014A
:10205000E2CF6417750739F4963320F4953319F4F9
:10206000311101C081E3F6018083F701822F90E2F4
:10207000882319F091938150FBCFF701E20FF11DF6
:10208000108280E090E029960FB6F894DEBF0FBE74
:10209000CDBFDF91CF911F910F91FF90EF90DF9017
:1020A000CF90BF90AF909F908F900895283008F008
:1020B00027E03327DA01990F311D87FD91600096E3
:1020C0006105710539F432602E5F3D9330E32A9546
:1020D000E1F708959F3F30F080387105610509F000
:1020E0003C5F3C5F3D93913008F08068911DDF9329
:1020F000CF931F930F93FF92EF92192F987F96958E
:10210000E92F96959695E90FFF27E05FFE4F9927F7
:102110003327EE24FF24A701E701059008940794D4
:1021200028F4360FE71EF81E491F511D660F771F52
:10213000881F991F0694A1F70590079428F4E70ECD
:10214000F81E491F561FC11D770F881F991F661F54
:102150000694A1F70590079428F4F80E491F561F1E
:10216000C71FD11D880F991F661F771F0694A1F7FF
:102170000590079420F4490F561FC71FD81F990FC9
:10218000661F771F881F0694A9F784911095177012
:1021900041F0D695C79557954795F794E7941A95CA
:1021A000C1F7E6EBF0E068941590159135916591D3
:1021B000959105907FE27395E118F10A430B560B58
:1021C000C90BD009C0F7E10CF11E431F561FC91FF0
:1021D000D01D7EF4703311F48A95E6CFE894015057
:1021E00030F0080F0AF40027021708F4202F239577
:1021F000022F7A3328F079E37D932A95E9F710C00E
:102200007D932A9589F60694979567953795179546
:102210001794E118F10A430B560BC90BD00998F03B
:1022200023957E9173957A3308F070E37C932013A5
:10223000B8F77E9170617D9330F0839571E37D9363
:1022400070E32A95E1F71124EF90FF900F911F9111
:10225000CF91DF91992787FD90950895DC01FC01CE
:10226000672F71917723E1F7329704C07C916D93CA
:1022700070836291AE17BF07C8F30895F894FFCF3B
:102280007D646F6E65310064656661756C74000015
:00000001FF
