:1000000070C200000C94F30A0C943C0B0C94850B0A
:100010000C94CE0B84C2000082C2000080C200009B
:100020007EC200007CC200000C94740A78C20000FA
:1000300076C2000074C200000C949B0A70C20000DB
:100040000C94AE096CC20000A9C500007FC5000079
:1000500066C2000064C2000062C2000060C200000C
:100060005EC200005CC200005AC2000058C200001C
:1000700056C200000C94C00A52C2000050C20000D8
:100080004EC200004CC200004AC200007406D406F2
:10009000D906DD06E106E606EA06EC06EE06F006FF
:1000A0000607150728073E0745074E0755075B0754
:1000B000600765076A0700407A10F35A00A0724E85
:1000C00018090010A5D4E80000E87648170000E4FD
:1000D0000B54020000CA9A3B000000E1F505000045
:1000E00080969800000040420F000000A0860100AA
:1000F0000000102700000000E8030000000064007A
:10010000000000000A0000000000010000000000E4
:100110002C76D888DC674F0823DFC1DFAE59E1B108
:10012000B796E5E3E453C63AE651997696E8E6C217
:100130008426EB898C9B62ED407C6FFCEFBC9C9F1E
:1001400040F2BAA56FA5F490055A2AF75C936B6C40
:10015000F9676DC11BFCE0E40D47FEF520E6B50034
:10016000D0ED902E0300943577050080841E0800A2
:1001700000204E0A000000C80C333333330F986E52
:1001800012831141EF8D2114893BE65516CFFEE60F
:10019000DB18D1844B381BF77C1D901DA4BBE424D5
:1001A000203284725E228100C9F124ECA1E53D2752
:1001B000AF039B03860375036203520340032E03C0
:1001C0001A030503EE02D802C002A7028E027502CE
:1001D0005B024802350222020F020002F201E00136
:1001E0007365745374656572696E6741737369737F
:1001F000740073657456656E74734C6576656C0037
:100200007365744C69676874734C6576656C0061DE
:1002100063746976617465446F6F724C617463686E
:1002200034006163746976617465446F6F724C6108
:1002300074636833006163746976617465446F6FD9
:10024000724C6174636832006163746976617465CD
:10025000446F6F724C6174636831006465616374EC
:10026000697661746557696E64736869656C645713
:100270006970657200616374697661746557696E4F
:1002800064736869656C6457697065723300616393
:1002900074697661746557696E64736869656C64C6
:1002A000576970657232006163746976617465576D
:1002B000696E64736869656C645769706572310052
:1002C0006163746976617465526967687457696EB1
:1002D000646F77446F776E006163746976617465EB
:1002E000526967687457696E646F7755700061630F
:1002F0007469766174654C65667457696E646F776E
:10030000446F776E0061637469766174654C6566ED
:100310007457696E646F77557000646561637469C2
:1003200076617465467574757265557365006163B1
:100330007469766174654675747572655573650088
:10034000646561637469766174654C6F7742656159
:100350006D0061637469766174654C6F77426561A5
:100360006D00646561637469766174654869676886
:100370004265616D0061637469766174654869679F
:10038000684265616D00736574496E746572696F6A
:10039000724C69676874734F666600736574496E62
:1003A000746572696F724C69676874734F6E006729
:1003B000657400DA04D204CA04C204BA04B304ABFC
:1003C0000499048604750463045C0448043404201E
:1003D000040C040304EA03D9037374656572696E3F
:1003E000675F6173736973743A00737465657269EA
:1003F0006E675F776865656C5F706F736974696F4E
:100400006E3A00626174746572793A00706F776554
:10041000725F77696E64736869656C6452443A0010
:10042000706F7765725F77696E64736869656C6415
:1004300052553A00706F7765725F77696E647368C2
:1004400069656C644C443A00706F7765725F7769D8
:100450006E64736869656C644C553A0076656E74B9
:10046000733A0077696E64736869656C645F776975
:100470007065723A00696E746572696F725F6C695B
:10048000676874733A0072696768745F7475726E36
:100490005F7369676E616C3A006C6566745F747552
:1004A000726E5F7369676E616C3A0068617A61723F
:1004B000643A006272616B653A00776865656C3416
:1004C0003A00776865656C333A00776865656C3229
:1004D0003A00776865656C313A006361725F6F6EF0
:1004E0003A0011241FBECFEFD0E1DEBFCDBF11E037
:1004F000A0E0B1E0E0E3F0E200E00BBF02C0079053
:100500000D92A431B107D9F722E0A4E1B1E001C016
:100510001D92AD31B207E1F740D00C94161070CDAA
:1005200087E886B90895806487B985E38A95F1F7ED
:100530000000369A349BFECF349A84B195B1089569
:10054000F2DFBC0180E090E00E94170C20E030E078
:1005500040EA5BE30E94540C2AE037ED47E950E49F
:100560000C94540CDEC598B321E030E001C0220F9A
:100570008A95EAF7292B28BB089595B321E030E04E
:1005800001C0220F8A95EAF7292B25BB08958823FD
:1005900011F0959A089595980895E4DF87E0E3DFD8
:1005A000BFDF2FD399D64DE760EA76E881E090E08F
:1005B00076D241E060E573EC80E090E07BD281E0B0
:1005C00080930A0285E0CFDF87E0CDDF7894BB24FB
:1005D000B39400E315E7E12CF12C82E1D82EC1E0C1
:1005E000DFE09FE1C92E55D3C8991EC080912F012D
:1005F00081111AC0D0922F0183B7811101C04ED64C
:1006000080911102882339F010921102C49810923F
:100610002B01F12C2AC0C093110280E0B8DF84E0E6
:10062000A2DF109212021FC0C9991FC080912E0133
:1006300081111BC0D0922E0183B7811101C02ED62B
:1006400080911202882341F01092120280E09FDF15
:1006500010922B01E12C09C0C0931202C49881E0D2
:1006600096DF10921102D0932B01CA9906C0879988
:1006700004C0979AC0930F0207C0CA9B05C0879B0E
:1006800003C0979810920F02CB9905C09F9903C0A1
:1006900087E073DF04C0CB9B02C09F99AF98CC99D1
:1006A0000FC080912C0181110BC0B69B02C0C6986F
:1006B00001C0C69AD0922C0183B7811101C0EED53A
:1006C000CE991DC0CF9B1BC0849919C0CD9909C07C
:1006D00083E053DFC092280183B781115AC0DED571
:1006E00058C08091650081608093650080916500AD
:1006F0008D7F80936500949AC09316024AC0CE9B6A
:1007000016C08091630080FF12C080912A01811180
:100710000EC0809165008E7F80936500809165009A
:100720008D7F8093650094981092160232C0CF9905
:1007300019C0CE9B17C0849915C0CD9905C084E01F
:100740001CDFC0922701C8CF809165008E7F809307
:10075000650080916500826080936500949AC093E3
:10076000170217C0CF9B15C08091630081FF11C095
:1007700080912A0181110DC0809165008E7F809348
:100780006500809165008D7F80936500949810923C
:10079000170202991FC0039B1DC08091630084FD56
:1007A00019C0CD9909C085E0E8DEC092260183B763
:1007B000811168C073D566C08091650084608093A4
:1007C000650080916500877F80936500809165005A
:1007D000806117C0029B1AC08091630082FF16C01F
:1007E00080912901811112C0809165008B7F8093D7
:1007F000650080916500877F80936500809165002A
:100800008F7E80936500C09318023CC003991FC07F
:10081000029B1DC08091630084FD19C0CD9905C065
:1008200086E0ABDEC0922501C2CF809165008B7F50
:100830008093650080916500886080936500809159
:100840006500806180936500C09319021BC0039B03
:1008500019C08091630083FF15C080912901811127
:1008600011C0809165008B7F809365008091650049
:10087000877F80936500809165008F7E80936500FF
:1008800010921902049920C080912D0181111CC081
:10089000D0922D0183B7811101C000D58091100243
:1008A000882349F010921002C49880E070DE969878
:1008B00010922B0109C0C093100284E054DE81E045
:1008C00066DE969AD0932B0180912B0181114DC049
:1008D00080911002882339F0B49B02C0C49833C0C1
:1008E00084E041DE30C0809111028823B9F086E0B7
:1008F000FF2049F018DE8115924048F01092110255
:10090000C498F12C32C00FDE8115924048F1B49B9F
:1009100002C0C4981EC084E026DE1BC08091120273
:10092000882319F186E0EE2051F0FDDD8130924000
:1009300050F41092120280E02ADEE12C16C0F3DDA2
:100940008130924080F4859B02C080E001C081E04C
:100950001EDED0932B0183B7811107C09FD405C041
:10096000FF24F39402C0EE24E394809128018111C6
:1009700002C09B99AB9880912701811102C09C997C
:10098000AC9880912601811102C09D99AD9880910B
:100990002501811102C09E99AE980115110509F03B
:1009A00073C087E0C0DD8E3C910560F4989904C067
:1009B000999902C09A9B06C0A898A998AA981092E3
:1009C000140232C087E0AFDD8E3C910568F087E00D
:1009D000AADD8A39914040F4989906C080E0CDDDC7
:1009E000809114028C591EC087E09DDD87369240AD
:1009F00068F087E098DD8333934040F4999906C00E
:100A000081E0BBDD809114028C5E0CC087E08BDD41
:100A10008433934048F09A9907C082E0AEDD80911C
:100A200014028D5F80931402B11003C000E315E738
:100A3000DACDC093200140D480E074D483B7811113
:100A400001C02CD489B7882321F080912001811125
:100A5000F9CF87B78F7B87BF19BE80913A019091FC
:100A60003B0101978C3B910518F0BB24B394DECF7A
:100A700010923B0110923A0141E060E177E280E0A0
:100A800090E018D0B12CD2CF01501109ACCD80E547
:100A90008DB91EB808958FB9779BFECF08956093E6
:100AA00014017093150180931601909317014093E0
:100AB0000001EDCFCF92DF92EF92FF92CF93E42F20
:100AC00020911401309115014091160150911701A8
:100AD000261737074807590780F1F0910001DC011C
:100AE000CB018F1B9109A109B109181619061A0625
:100AF0001B062CF5CE2F6627782F892F9A2F9BD790
:100B000069017A0181E0C81AD108E108F1081A9850
:100B100081E1C1DFC1110CC080E091E0A0E0B0E054
:100B20009C01AD012C193D094E095F0969017A014B
:100B30008C2DB1DF1A9A8C2D03C080E001C084E3B4
:100B4000CF91FF90EF90DF90CF9008951F920F927A
:100B50000FB60F9211240BB60F928F93EF93FF9362
:100B6000E091C701809109028E1751F081E08E0F4C
:100B70008093C701F0E0E957FE4F80818CB904C033
:100B8000559881E080931801FF91EF918F910F901C
:100B90000BBE0F900FBE0F901F9018951F920F92D3
:100BA0000FB60F9211240BB60F922F933F938F9392
:100BB0009F93EF93FF932CB180911A0190E00196DF
:100BC0008F73992730911B01381771F02D3049F040
:100BD000E0911A01F0E0E853FE4F208380931A0160
:100BE00003C081E080931901FF91EF919F918F9154
:100BF0003F912F910F900BBE0F900FBE0F901F9043
:100C0000189587E689B9109290001BB888E98AB9CF
:100C100086E0809395000895109209021092C70112
:100C2000DC018C9190910902882359F081E0890FB1
:100C3000809309028D91E92FF0E0E957FE4F808300
:100C4000F0CFE82FE90FA82FB0E0A558BE4F4C9188
:100C50008F5F2E2F30E0442329F0F901E957FE4F32
:100C60004083EFCF81E08093C701D901A957BE4FE0
:100C70008DE08C9382E08E0F80930902EF5FF0E0AD
:100C8000E957FE4F8AE08083809187018CB9559A9D
:100C900008950F931F93CF93DF93809119018823B9
:100CA00009F4CCC11092190100EB11E0C0E0D0E0D2
:100CB000F8016591749189E491E02AD7BC0188EC30
:100CC00091E034D7892B41F00E5F1F4FC531D1051C
:100CD00009F405C12196ECCFC531D10508F0FFC05C
:100CE000FE01EA5BFF4FC9C681E0809320011092AC
:100CF0003B0110923A01E0D280E014D383B7811116
:100D000001C0CCD289B7882321F0809120018111C4
:100D1000F9CF81E0809320011092390110923801BF
:100D2000CBD281E0FFD283B7811101C0B7D289B79E
:100D3000882321F0809120018111F9CF81E08093F7
:100D400020011092370110923601B6D282E0EAD229
:100D500083B7811101C0A2D289B7882321F0809185
:100D600020018111F9CF81E080932001109235019B
:100D700010923401A1D283E0D5D283B7811101C092
:100D80008DD289B7882321F0809120018111F9CF7C
:100D900087B78F7B87BF19BE10921F0110921E016B
:100DA00081E0809318013DC11C9A81E08093130279
:100DB00038C11C981092130234C1C69A81E091E0A8
:100DC00003C0C69887E091E027DF2BC1C59A8DE06C
:100DD00091E0FACFC59825C11D9A23C11D9821C164
:100DE00080916500816080936500809165008D7FB2
:100DF00080936500949A81E0809316028EE380933D
:100E00002A0183B781110DC149D20BC180916500C0
:100E10008E7F80936500809165008260809365007D
:100E2000949A81E080931702E9CF809165008460F5
:100E30008093650080916500877F80936500809135
:100E4000650080618093650081E08093180212C084
:100E5000809165008B7F809365008091650088603C
:100E6000809365008091650080618093650081E0DA
:100E7000809319028EE380932901C3CF9899D1C042
:100E8000A89A809114028C5906C09999CAC0A99A4F
:100E9000809114028C5E80931402C3C09A99C1C0E1
:100EA000AA9A809114028D5FF6CFA898A998AA9863
:100EB00010921402B6C0AB9A8FE180932801A1CFA3
:100EC000AC9A8FE1809327019CCFAD9A8FE18093FC
:100ED000260197CFAE9A8FE18093250192CF109291
:100EE0001D0110921C0140E050E090E03AE080913A
:100EF0001A019817A8F4E92FF0E0E853FE4F20817B
:100F000080ED820F8A3050F42F70BA01620F711D8C
:100F1000369FA001379F500D112410829F5FE7CFAD
:100F2000CA016AE070E074D570931D0160931C01E2
:100F3000C5E1D0E0FE01EE0FFF1FE055FE4F6591C9
:100F4000749189E491E0E4D5BC0188EC91E0EED5A0
:100F5000892B29F02196C831D10561F762C0C531CE
:100F6000D10541F580911C0190911D0184369105B8
:100F700014F0C79A03C0009721F4C7988FB5877FF4
:100F800017C04AE0489F9001499F300D11243093CB
:100F90004301209342010FB403FE04C087B784606D
:100FA00087BF3FC030937900209378008FB5886069
:100FB0008FBD37C0669759F580911C01809315024B
:100FC000843610F01B9A03C0811105C01B988091D4
:100FD0008B008F7719C02AE0829FC0011124909363
:100FE00041018093400120918B0027FF06C0809132
:100FF0007D00846080937D0014C09093870080936F
:10100000860080918B00806880938B000AC02091BD
:101010001C0120931C0230E0A8EEB3E037D541E07C
:1010200049DD40911A0150E060E070E088EC91E009
:1010300076D510921B0110921A016EC08091180192
:10104000882309F469C080912001811165C0109244
:10105000180180911E0190911F018331910509F4BF
:101060005BC08130910529F460913A0170913B0198
:1010700007C08230910591F4609138017091390177
:1010800080E090E0D4D32DEC3CEC4CEC5CE30CD451
:101090000BE711E023E043E01CD527C08330910526
:1010A00029F46091360170913701EACF84309105BF
:1010B00029F46091340170913501E2CF80319105BE
:1010C00011F485E004C08131910531F486E038DA0D
:1010D0000BE711E021E0DFCFFC01E65FFD4F8081EF
:1010E0004AE06BE771E090E02AD5E0911E01F091B3
:1010F0001F01EE0FFF1FED54FC4F6591749187E8BF
:1011000091E006D589DD80911E0190911F01019625
:1011100090931F0180931E01DF91CF911F910F913A
:101120000895CF93DF938AB31ABA8BB32FEF2BBBFB
:1011300087B317BA88B328BB84B314BA85B325BB69
:1011400081B311BA82B322BB82B112B883B123B981
:1011500081E690E0DC013C911C92E2E6F0E0308117
:101160002083C4E6D0E02881207E288345E650E035
:10117000DA012C912F612C93D098D898D198D998D6
:10118000D298DA98D398DB98D498DC98D598DD98E3
:10119000D698DE98D798DF98B89AC09AB99AC19A2B
:1011A000BA9AC29ABB98BB98C39ABC9AC498BD9A83
:1011B000C598BE9AC698BF9AC798A09AA898A19AAF
:1011C000A998A29AAA98A39AAB98A49AAC98A59A1F
:1011D000AD98A69AAE98A79AAF9888989098899853
:1011E00091988A9892988B9893988C9A94988D9AC3
:1011F00095988E9A96988F9A9798129A1A9A139A07
:101200001B98149A1C98159A1D98169A1E98179A4E
:101210001F9820812E7F208320812D7F2083DC0159
:101220002C912B7F2C9320812B7F20832C91277F47
:101230002C932081277F20832C912F7E2C938081DB
:101240008F7E808380818F7D808380818F7B808370
:1012500080818F778083888181608883FA01808193
:101260008E7F808388818260888380818D7F808368
:1012700088818460888380818B7F80838881886077
:1012800088838081877F8083888180618883808153
:101290008F7E808315BEDF91CF91089586E082BF57
:1012A00087B7816087BF83B7876083BF089513BE08
:1012B00087B78E7F87BF08958EEC84BD87B7806423
:1012C00087BF86B7806486BF86B7806486BF08956F
:1012D00087B78F7B87BF089513BE8FB583608FBD9F
:1012E0008EB589608EBD1BBC1ABC19BC18BC10928F
:1012F000790010927800EBE8F0E0808183608083D1
:10130000EAE8F0E080818960808310928700109283
:101310008600109285001092840010928300109233
:10132000820008959FEF90936A001092300110920E
:1013300031011092320110923301813041F028F0D6
:10134000823039F0833039F0089581E005C082E0C1
:1013500003C084E001C088E089BF08951F920F9206
:101360000FB60F9211240BB60F922F933F934F930A
:101370005F936F937F938F939F93AF93BF93EF93FD
:10138000FF9386E082BF80912F0181112EC0809152
:101390002E0181112AC080912D01811126C08091DA
:1013A0002B01811122C080912C0181111EC08091DE
:1013B0002A0181111AC080912901811116C08091E2
:1013C0002801811112C08091270181110EC08091E6
:1013D000260181110AC080912501811106C08091EA
:1013E0002001811102C063DF6CC080912F0188232E
:1013F00029F080912F01815080932F0180912E013F
:10140000882329F080912E01815080932E018091B4
:101410002D01882329F080912D01815080932D0189
:1014200080912C01882329F080912C018150809398
:101430002C0180912B01882329F080912B01815070
:1014400080932B0180912901882329F08091290123
:1014500081508093290180912A01882329F080916D
:101460002A01815080932A0180912801882329F044
:101470008091280181508093280180912701882341
:1014800029F08091270181508093270180912601C6
:10149000882329F080912601815080932601809134
:1014A0002501882329F08091250181508093250111
:1014B00080912001882329F0809120018150809320
:1014C0002001FF91EF91BF91AF919F918F917F91FB
:1014D0006F915F914F913F912F910F900BBE0F90A5
:1014E0000FBE0F901F9018951F920F920FB60F927C
:1014F00011248F939F93AF93BF938EEC84BD809103
:10150000300190913101A0913201B09133010196E7
:10151000A11DB11D8093300190933101A093320140
:10152000B0933301BF91AF919F918F910F900FBEF8
:101530000F901F9018951F920F920FB60F921124C3
:101540008F939F9387B78B7F87BF80914601909140
:1015500047019BBD8ABD809144019091450199BD91
:1015600088BD8091420190914301909379008093CE
:1015700078009F918F910F900FBE0F901F9018953C
:101580001F920F920FB60F9211240BB60F928F93EA
:101590009F93EF93FF93EDE7F0E080818B7F808353
:1015A0008091400190914101909387008093860043
:1015B00080913E0190913F0190938500809384003B
:1015C00080913C0190913D01909383008093820033
:1015D000FF91EF919F918F910F900BBE0F900FBED7
:1015E0000F901F9018951F920F920FB60F92112413
:1015F0000BB60F922F933F934F935F936F937F930D
:101600008F939F93AF93BF93EF93FF9380912401A8
:10161000882389F08091300190913101A0913201AD
:10162000B091330190933B0180933A0151DE19BE92
:10163000109224010EC085B5826085BD10923001E4
:1016400010923101109232011092330181E08093A7
:101650002401FF91EF91BF91AF919F918F917F9165
:101660006F915F914F913F912F910F900BBE0F9013
:101670000FBE0F901F9018951F920F920FB60F92EA
:1016800011240BB60F922F933F934F935F936F9359
:101690007F938F939F93AF93BF93EF93FF9380912B
:1016A0002301882389F08091300190913101A0912C
:1016B0003201B0913301909339018093380108DEF3
:1016C00019BE109223010EC085B5826085BD1092AF
:1016D000300110923101109232011092330181E0F9
:1016E00080932301FF91EF91BF91AF919F918F91D3
:1016F0007F916F915F914F913F912F910F900BBE12
:101700000F900FBE0F901F9018951F920F920FB65B
:101710000F9211240BB60F922F933F934F935F9329
:101720006F937F938F939F93AF93BF93EF93FF93A9
:1017300080912201882389F08091300190913101BC
:10174000A0913201B091330190933701809336011B
:10175000BFDD19BE109222010EC085B5826085BD25
:101760001092300110923101109232011092330127
:1017700081E080932201FF91EF91BF91AF919F9102
:101780008F917F916F915F914F913F912F910F902A
:101790000BBE0F900FBE0F901F9018951F920F92C7
:1017A0000FB60F9211240BB60F922F933F934F93C6
:1017B0005F936F937F938F939F93AF93BF93EF93B9
:1017C000FF9380912101882389F0809130019091CD
:1017D0003101A0913201B091330190933501809392
:1017E000340176DD19BE109221010EC085B58260EC
:1017F00085BD109230011092310110923201109289
:10180000330181E080932101FF91EF91BF91AF916E
:101810009F918F917F916F915F914F913F912F9108
:101820000F900BBE0F900FBE0F901F901895E8946D
:1018300009C097FB3EF490958095709561957F4F18
:101840008F4F9F4F9923A9F0F92F96E9BB279395C6
:10185000F695879577956795B795F111F8CFFAF4D6
:10186000BB0F11F460FF1BC06F5F7F4F8F4F9F4F07
:1018700016C0882311F096E911C0772321F09EE865
:10188000872F762F05C0662371F096E8862F70E0CB
:1018900060E02AF09A95660F771F881FDAF7880FA5
:1018A0009695879597F908950BD078C069D028F060
:1018B0006ED018F0952309F05AC05FC01124A2C061
:1018C0007ED0A0F3959FD1F3950F50E0551F629FF6
:1018D000F001729FBB27F00DB11D639FAA27F00D89
:1018E000B11DAA1F649F6627B00DA11D661F829FB0
:1018F0002227B00DA11D621F739FB00DA11D621F95
:10190000839FA00D611D221F749F3327A00D611DB1
:10191000231F849F600D211D822F762F6A2F112493
:101920009F5750408AF0E1F088234AF0EE0FFF1FE6
:10193000BB1F661F771F881F91505040A9F79E3F1D
:10194000510570F014C05EC05F3FECF3983EDCF3CD
:10195000869577956795B795F795E7959F5FC1F75A
:10196000FE2B880F911D9695879597F9089597F905
:101970009F6780E870E060E008959FEF80EC089535
:1019800000240A941616170618060906089500245E
:101990000A9412161306140605060895092E0394D8
:1019A000000C11F4882352F0BB0F40F4BF2B11F44C
:1019B00060FF04C06F5F7F4F8F4F9F4F089557FDAB
:1019C0009058440F551F59F05F3F71F04795880FAD
:1019D00097FB991F61F09F3F79F087950895121644
:1019E00013061406551FF2CF4695F1DF08C01616F0
:1019F00017061806991FF1CF8695710561050894A1
:101A00000895E894BB2766277727CB0197F90895B7
:101A100097FB072E16F4009406D077FD08D045D02A
:101A200007FC05D03EF4909581959F4F08957095E1
:101A300061957F4F0895A1E21A2EAA1BBB1BFD01E1
:101A40000DC0AA1FBB1FEE1FFF1FA217B307E4079D
:101A5000F50720F0A21BB30BE40BF50B661F771FF5
:101A6000881F991F1A9469F76095709580959095D5
:101A70009B01AC01BD01CF010895EE0FFF1F0024B3
:101A8000001C0BBE0790F691E02D0994A29FB001B7
:101A9000B39FC001A39F700D811D1124911DB29FA2
:101AA000700D811D1124911D0895AA1BBB1B51E1CE
:101AB00007C0AA1FBB1FA617B70710F0A61BB70BBE
:101AC000881F991F5A95A9F780959095BC01CD0163
:101AD0000895EF920F931F93CF93DF93E80147FD93
:101AE00002C034E001C034E1042E000C550B57FF56
:101AF00003C0519541955109E32E022F242FAE01C9
:101B000037D0CE01DF91CF911F910F91EF900895C3
:101B1000FB01DC0105900D920020E1F70895DC0146
:101B200001C06D9341505040E0F70895FB01DC0186
:101B30008D91019080190110D9F3990B0895BB275D
:101B4000FB015527AA27880F991FAA1FA41710F079
:101B5000A41B83955051B9F7A05DAA3308F0A95D85
:101B6000A193009779F7B111B1931192CB014EC2B5
:101B70008F929F92AF92BF92CF92DF92EF92FF929D
:101B80000F931F93CF93DF93CDB7DEB729970FB68F
:101B9000F894DEBF0FBECDBF6A01122FB02E2BE32B
:101BA000201720F0FF24F394F00E02C02CE3F22E55
:101BB0000F2D27E0AE014F5F5F4F50D1BC0149812F
:101BC000842F8970813031F0E1FC06C0E0FE06C050
:101BD00090E205C09DE203C09BE201C090E05E2D53
:101BE000507143FF3CC0911102C083E001C084E00A
:101BF000811718F4212F281B01C020E051110BC0C0
:101C0000F601822F30E2882319F031938150FBCF07
:101C1000C20ED11C20E0992329F0D6019C93F60135
:101C200031966F01C6010396E2FE0AC03EE4D6017A
:101C30003C9341E411964C93119712963C9306C045
:101C40003EE6F601308341E641833283FC01322FC8
:101C500040E2332309F442C041933150FACF42FFAE
:101C600044C0911102C083E001C084E0811718F4E0
:101C7000212F281B01C020E051110BC0F601822F3B
:101C800030E2882319F031938150FBCFC20ED11C72
:101C900020E0992329F0D6019C93F60131966F013B
:101CA000C6010396E2FE0BC039E4D6013C933EE444
:101CB00011963C93119736E412963C9307C039E68F
:101CC000F60130833EE6318336E63283FC01322F63
:101CD00040E2332319F041933150FBCFFC01E20F76
:101CE000F11D10828EEF9FEFA6C021E030E0911130
:101CF00002C020E030E0161617061CF4FB013196F6
:101D000002C0E1E0F0E02E0F3F1FBB2021F0EB2DE1
:101D1000F0E0319602C0E0E0F0E02E0F3F1FE12F2F
:101D2000F0E02E173F071CF4121B212F01C020E00A
:101D30008E2D887159F4F601822F30E2882319F034
:101D400031938150FBCFC20ED11C20E0992329F0A2
:101D5000D6019C93F60131966F0151110BC0F6012B
:101D6000822F90E3882319F091938150FBCFC20E0C
:101D7000D11C20E00F2D060F9A81342F307144FFC3
:101D800003C0913309F40150101624F4093018F0FF
:101D900008E001C001E0AB0177FF02C040E050E085
:101DA000FB01E41BF50BA1E0B0E0AC0FBD1FEA0F97
:101DB000FB1F8EE2A82E4B01801A91080B2D10E01C
:101DC0001195019511094F3FBFEF5B0721F4D60133
:101DD000AC9211966D01641775072CF08416950668
:101DE00014F4818101C080E3415051093196D6013C
:101DF00011967D014017510724F0D6018C9367019D
:101E0000E2CF6417750739F4963320F4953319F44B
:101E1000311101C081E3F6018083F701822F90E246
:101E2000882319F091938150FBCFF701E20FF11D48
:101E3000108280E090E029960FB6F894DEBF0FBEC6
:101E4000CDBFDF91CF911F910F91FF90EF90DF9069
:101E5000CF90BF90AF909F908F900895283008F05A
:101E600027E03327DA01990F311D87FD9160009635
:101E70006105710539F432602E5F3D9330E32A9598
:101E8000E1F708959F3F30F080387105610509F052
:101E90003C5F3C5F3D93913008F08068911DDF937B
:101EA000CF931F930F93FF92EF92192F987F9695E0
:101EB000E92F96959695E90FFF27E05FFE4F99274A
:101EC0003327EE24FF24A701E70105900894079427
:101ED00028F4360FE71EF81E491F511D660F771FA5
:101EE000881F991F0694A1F70590079428F4E70E20
:101EF000F81E491F561FC11D770F881F991F661FA7
:101F00000694A1F70590079428F4F80E491F561F70
:101F1000C71FD11D880F991F661F771F0694A1F751
:101F20000590079420F4490F561FC71FD81F990F1B
:101F3000661F771F881F0694A9F784911095177064
:101F400041F0D695C79557954795F794E7941A951C
:101F5000C1F7E6EBF0E06894159015913591659125
:101F6000959105907FE27395E118F10A430B560BAA
:101F7000C90BD009C0F7E10CF11E431F561FC91F42
:101F8000D01D7EF4703311F48A95E6CFE8940150A9
:101F900030F0080F0AF40027021708F4202F2395C9
:101FA000022F7A3328F079E37D932A95E9F710C060
:101FB0007D932A9589F60694979567953795179599
:101FC0001794E118F10A430B560BC90BD00998F08E
:101FD00023957E9173957A3308F070E37C932013F8
:101FE000B8F77E9170617D9330F0839571E37D93B6
:101FF00070E32A95E1F71124EF90FF900F911F9164
:10200000CF91DF91992787FD90950895DC01FC0120
:10201000672F71917723E1F7329704C07C916D931C
:1020200070836291AE17BF07C8F30895F894FFCF8D
:102030007D646F6E653300646F6E653400646F6E2F
:042040006535000002
:00000001FF
